00                                                   1110883273000185WJ CONTABILIDADE EIRELI EPP   WILLIAN CESAR LAUS  AVENIDA MAURO RAMOS 1450 ANDAR 9 SALA 902         CENTRO              88020302Florianopolis       SC004821064300relacionamento@komcorp.com.br                               2023091151         1               179011862000170                  *
10135382136000198000000000000000000000000000000000000ICOM COMERCIO DE MATERIAIS DE CONSTRUCAORODOVIA BR 101 0 KM 217                           PACHECOS            88135010Palhoca             SC004821064300N4679699P300151501152100     000000000000000000000000000000000000000000000000000000000000                000000000000000000000000000000000000000000000    *
30135382136000198               107645163690104199701EDSON DA SILVEIRA MOTA                                                           008708500581010419970807196305211000000000335575000000000000000    000000000000000000000000000000000000000000000000000000000000                                                                                                  *
30135382136000198               108882246100112200901ROGERIO SEVERINO KNAACH                                                          488121300001011220092310196605211000000000660000000000000000000    000000000000000000000000000000000000000000000000000000000000                                                                                                  *
30135382136000198               111102680970102202011CARLOS ALBERTO RIBEIRO DE SOUZA                                                                              01231000000000132000000000000000000    000000000000000000000000000000000000000000000000000000000000                                                                                                  *
30135382136000198               125434675580508201401MARISTELA DE FATIMA DUTRA                                                        395064900010050820142804197605143000000000204009000000000102005    000000000000000000000000000000000000000000000000000000000000                                                                                                  *
30135382136000198               125602297750711200801JORGE LUIZ SILVEIRA                                                              007997800022071120083012197801423000000000775890000000000000000    000000000000000000000000000000000000000000000000000000000000                                                                                                  *
30135382136000198               129362687121503201901ANA PAULA DA ROSA SILVA                                                          567077800010150320192903198804110000000000190000000000000000000    000000000000000000000000000000000000000000000000000000000000                                                                                                  *
30135382136000198               129548167260208201001MACIEL FARIAS TORRES                                                             005743100027020820101512198001423000000001973483000000000000000  05000000000000000000000000000000000000000000000000000000000000                                                                                                  *
30135382136000198               132144287202505201701MEURIAN DORNELLES DIEHL                                                          246091300020250520172004198005211000000000250806000000000000000    000000000000000000000000000000000000000000000000000000000000                                                                                                  *
30135382136000198               132995137280104201001DIEGO ALZEMIRO DA SILVA                                                          174308600010010420102808198401421000000000619317000000000000000    000000000000000000000000000000000000000000000000000000000000                                                                                                  *
30135382136000198               133470907201205201101MELANIA IRACI DA SILVA                                                           008902100023120520111305197803911000000000318276000000000000000    000000000000000000000000000000000000000000000000000000000000                                                                                                  *
30135382136000198               133654567230204201901VILMA MARIA VOLSTER                                                              007110400020020420192411197904131000000000228000000000000000000    000000000000000000000000000000000000000000000000000000000000                                                                                                  *
30135382136000198               134878687242701202001DIEGO RIBEIRO LIMA                                                               391238700010270120201907198603172000000000190000000000000000000    000000000000000000000000000000000000000000000000000000000000                                                                                                  *
30135382136000198               135785707282606201701LUCIANA DE MELO BARBOZA                                                          394041000010260620172901198404110000000000430831000000000000000    000000000000000000000000000000000000000000000000000000000000                                                                                                  *
30135382136000198               136312557201401201901PRICILLA BAPTISTA                                                                395776300010140120192012198504110000000000259850000000000000000    000000000000000000000000000000000000000000000000000000000000                                                                                                  *
30135382136000198               136366787270809201401FELIPE DIAS DA CUNHA                                                             396005900010080920142705198601425000000000520519000000000000000  05000000000055463000000000000000000000000000000000000000000000                                                                                                  *
30135382136000198               138001444910110201901NAYARA DA SILVA CORREA                                                           817865400040011020192811199605211000000000281460000000000000000    000000000000000000000000000000000000000000000000000000000000                                                                                                  *
30135382136000198               138079767272405201201TAMYRIS REGINA GODINHO MARQUES                                                   628990300010240520120208198702523000000000509972000000000000000    000000000000000000000000000000000000000000000000000000000000                                                                                                  *
30135382136000198               140547317200109201001ROBERTA EDUARDA WEINGARTNER                                                      317156900002010920102605199105211000000000250806000000000000000    000000000000000000000000000000000000000000000000000000000000                                                                                                  *
30135382136000198               143006527552602201501SANTA FELICITA DE LOS SANTOS GUILLERMO                                           036957100001260220151007197205143000000000184700000000000000000    000000000000000000000000000000000000000000000000000000000000                                                                                                  *
30135382136000198               200600304072903201101GUILHERME SOARES STOCK                                                           021811500030290320112106199001421000000000456834000000000000000    000000000000000000000000000000000000000000000000000000000000                                                                                                  *
30135382136000198               203334434081401201901ANA PAULA STEFFENS NEVES DE ABREU                                                626165200010140120192111198604131000000000214488000000000000000    000000000000000000000000000000000000000000000000000000000000                                                                                                  *
30135382136000198               203662887700912201301ROBSON BARRETO CUSTODIO MACIEL                                                   638491200010091220132108198501426000000001036302000000000000000    000000000000000000000000000000000000000000000000000000000000                                                                                                  *
30135382136000198               210543395992111201601YASMIN MENDES                                                                    436311900030211120161210199205211000000000343678000000000000000    000000000000000000000000000000000000000000000000000000000000                                                                                                  *
90999999999999999999999999999999999999999999999999999                                                                                                                                                                                                                                                                                                                  *