00                                                   1148545574000171JM CONTABILIDADE SS LTDA      JAIRSON MORAES DA SIOutro Avenida Ledio Joao Martins 38 Apto 202      Kobrasol            88102001Sao Jose            SC004821064300                                                            2023101151         1               179011862000170                  *
10141432206000178000000000000000000000000000000000000ARS CENTRO NOVO OTICA LTDA              Rua Felipe Schmidt 249 SALA 01 CENTRO COMERCIAL ARCentro              88010000Florianopolis       SC004832256592N4774100P0002515    2003     000000000000000000000000000000000000000000000000000000000000                000000000000000000000000000000000000000000000    *
30141432206000178               125837504201005202301CRISTIANA DE JESUS LONDRES                                                       507934602215100520231103197303541000000000190000000000000000000    000000000000000000000000000000000000000000000000000000000000                                                                                                  *
30141432206000178               137236307221910202101DAIANE CRISTINA MARTINS GRAHL                                                    059306300909191020212901198805201000000000764538000000000000000    000000000000000000000000000000000000000000000000000000000000                                                                                                  *
30141432206000178               162481252530109202111JACILENE DIAS DA CUNHA                                                                                       02521000000000132000000000000000000  05000000000014520000000000000000000000000000000000000000000000                                                                                                  *
30141432206000178               165820017961605202201ROMARIO DE ARAUJO                                                                045511805310160520221510199005211000000000190000000000000000000    000000000000000000000000000000000000000000000000000000000000                                                                                                  *
30141432206000178               204947253750308202301ARIADNE THAIANE ALVES DA CRUZ                                                    093443906990030820231802199605211000000000190000000000000000000    000000000000000000000000000000000000000000000000000000000000                                                                                                  *
30141432206000178               207078139180606202301LETICIA CARVALHO CICCARELLI                                                      364543601896060620233010199101421000000000344000000000000000000    000000000000000000000000000000000000000000000000000000000000                                                                                                  *
30141432206000178               228215706690606202301LINDINEIDE SILVA SANTOS                                                          458261903808060620231508199705211000000000190000000000000000000    000000000000000000000000000000000000000000000000000000000000                                                                                                  *
90999999999999999999999999999999999999999999999999999                                                                                                                                                                                                                                                                                                                  *